{
  "contractName": "LinkShortner",
  "abi": [
    {
      "constant": true,
      "inputs": [
        {
          "name": "",
          "type": "uint256"
        }
      ],
      "name": "linkMapping",
      "outputs": [
        {
          "name": "userAddress",
          "type": "address"
        },
        {
          "name": "url",
          "type": "string"
        }
      ],
      "payable": false,
      "stateMutability": "view",
      "type": "function"
    },
    {
      "inputs": [],
      "payable": false,
      "stateMutability": "nonpayable",
      "type": "constructor"
    },
    {
      "anonymous": false,
      "inputs": [
        {
          "indexed": false,
          "name": "linkId",
          "type": "uint256"
        },
        {
          "indexed": false,
          "name": "url",
          "type": "string"
        }
      ],
      "name": "LinkAdded",
      "type": "event"
    },
    {
      "constant": false,
      "inputs": [
        {
          "name": "url",
          "type": "string"
        }
      ],
      "name": "createNewLink",
      "outputs": [
        {
          "name": "",
          "type": "uint256"
        },
        {
          "name": "",
          "type": "string"
        }
      ],
      "payable": false,
      "stateMutability": "nonpayable",
      "type": "function"
    },
    {
      "constant": true,
      "inputs": [
        {
          "name": "linkId",
          "type": "uint256"
        }
      ],
      "name": "getLink",
      "outputs": [
        {
          "name": "",
          "type": "address"
        },
        {
          "name": "",
          "type": "string"
        }
      ],
      "payable": false,
      "stateMutability": "view",
      "type": "function"
    },
    {
      "constant": true,
      "inputs": [],
      "name": "getLastLink",
      "outputs": [
        {
          "name": "",
          "type": "address"
        },
        {
          "name": "",
          "type": "string"
        },
        {
          "name": "",
          "type": "uint256"
        }
      ],
      "payable": false,
      "stateMutability": "view",
      "type": "function"
    }
  ],
  "bytecode": "0x608060405234801561001057600080fd5b50600080819055506109c6806100276000396000f3fe608060405234801561001057600080fd5b506004361061004c5760003560e01c8063393b6df3146100515780637082ad151461012b578063e53857d614610205578063f820f2d714610340575b600080fd5b61007d6004803603602081101561006757600080fd5b81019080803590602001909291905050506103fd565b604051808373ffffffffffffffffffffffffffffffffffffffff1673ffffffffffffffffffffffffffffffffffffffff16815260200180602001828103825283818151815260200191508051906020019080838360005b838110156100ef5780820151818401526020810190506100d4565b50505050905090810190601f16801561011c5780820380516001836020036101000a031916815260200191505b50935050505060405180910390f35b6101576004803603602081101561014157600080fd5b8101908080359060200190929190505050610538565b604051808373ffffffffffffffffffffffffffffffffffffffff1673ffffffffffffffffffffffffffffffffffffffff16815260200180602001828103825283818151815260200191508051906020019080838360005b838110156101c95780820151818401526020810190506101ae565b50505050905090810190601f1680156101f65780820380516001836020036101000a031916815260200191505b50935050505060405180910390f35b6102be6004803603602081101561021b57600080fd5b810190808035906020019064010000000081111561023857600080fd5b82018360208201111561024a57600080fd5b8035906020019184600183028401116401000000008311171561026c57600080fd5b91908080601f016020809104026020016040519081016040528093929190818152602001838380828437600081840152601f19601f820116905080830192505050505050509192919290505050610614565b6040518083815260200180602001828103825283818151815260200191508051906020019080838360005b838110156103045780820151818401526020810190506102e9565b50505050905090810190601f1680156103315780820380516001836020036101000a031916815260200191505b50935050505060405180910390f35b610348610782565b604051808473ffffffffffffffffffffffffffffffffffffffff1673ffffffffffffffffffffffffffffffffffffffff16815260200180602001838152602001828103825284818151815260200191508051906020019080838360005b838110156103c05780820151818401526020810190506103a5565b50505050905090810190601f1680156103ed5780820380516001836020036101000a031916815260200191505b5094505050505060405180910390f35b600060606104096108c5565b600160008581526020019081526020016000206040518060400160405290816000820160009054906101000a900473ffffffffffffffffffffffffffffffffffffffff1673ffffffffffffffffffffffffffffffffffffffff1673ffffffffffffffffffffffffffffffffffffffff168152602001600182018054600181600116156101000203166002900480601f0160208091040260200160405190810160405280929190818152602001828054600181600116156101000203166002900480156105165780601f106104eb57610100808354040283529160200191610516565b820191906000526020600020905b8154815290600101906020018083116104f957829003601f168201915b5050505050815250509050806000015181602001518090509250925050915091565b60016020528060005260406000206000915090508060000160009054906101000a900473ffffffffffffffffffffffffffffffffffffffff1690806001018054600181600116156101000203166002900480601f01602080910402602001604051908101604052809291908181526020018280546001816001161561010002031660029004801561060a5780601f106105df5761010080835404028352916020019161060a565b820191906000526020600020905b8154815290600101906020018083116105ed57829003601f168201915b5050505050905082565b60006060600080815480929190600101919050555060405180604001604052803373ffffffffffffffffffffffffffffffffffffffff16815260200184815250600160008054815260200190815260200160002060008201518160000160006101000a81548173ffffffffffffffffffffffffffffffffffffffff021916908373ffffffffffffffffffffffffffffffffffffffff16021790555060208201518160010190805190602001906106cb9291906108f5565b509050507f9b7f4b64c618b7f4556eb67a96d7a0e26e168a77de8cc56d4dab673fd7b10756600054846040518083815260200180602001828103825283818151815260200191508051906020019080838360005b8381101561073a57808201518184015260208101905061071f565b50505050905090810190601f1680156107675780820380516001836020036101000a031916815260200191505b50935050505060405180910390a16000548391509150915091565b6000606060006107906108c5565b60016000805481526020019081526020016000206040518060400160405290816000820160009054906101000a900473ffffffffffffffffffffffffffffffffffffffff1673ffffffffffffffffffffffffffffffffffffffff1673ffffffffffffffffffffffffffffffffffffffff168152602001600182018054600181600116156101000203166002900480601f01602080910402602001604051908101604052809291908181526020018280546001816001161561010002031660029004801561089e5780601f106108735761010080835404028352916020019161089e565b820191906000526020600020905b81548152906001019060200180831161088157829003601f168201915b50505050508152505090508060000151816020015160005481915093509350935050909192565b6040518060400160405280600073ffffffffffffffffffffffffffffffffffffffff168152602001606081525090565b828054600181600116156101000203166002900490600052602060002090601f016020900481019282601f1061093657805160ff1916838001178555610964565b82800160010185558215610964579182015b82811115610963578251825591602001919060010190610948565b5b5090506109719190610975565b5090565b61099791905b8082111561099357600081600090555060010161097b565b5090565b9056fea165627a7a72305820fddaa206a7431edd63f85c755c53e78302ee2682b9722317e5f3d1d6b58d5d130029",
  "source": "pragma solidity ^0.5.0;\n\ncontract LinkShortner {\n  event LinkAdded(uint linkId, string url);\n  uint lastLinkId;\n\n  struct LinkTemplate {\n\t\taddress userAddress;\n\t\tstring url;\n\t}\n\n  mapping (uint => LinkTemplate) public linkMapping;\n\n  constructor() public {\n\t\tlastLinkId = 0;\n\t}\n\n  function createNewLink(string memory url) public returns (uint, string memory) {\n\t  lastLinkId++;\n\t\tlinkMapping[lastLinkId] = LinkTemplate(msg.sender, url);\n    emit LinkAdded(lastLinkId, url);\n\t\treturn(lastLinkId, url);\n\t}\n\n  function getLink(uint linkId) public view returns(address, string memory) {\n\t\tLinkTemplate memory link = linkMapping[linkId];\n\t\treturn(link.userAddress, link.url);\n\t}\n\n  function getLastLink() public view returns(address, string memory, uint) {\n\t\tLinkTemplate memory link = linkMapping[lastLinkId];\n\t\treturn(link.userAddress, link.url, lastLinkId);\n\t}\n\n}\n",
  "sourcePath": "/Users/anilmaurya/work/opensource/link-shortner/contracts/LinkShortner.sol",
  "compiler": {
    "name": "solc",
    "version": "0.5.8+commit.23d335f2.Emscripten.clang"
  },
  "schemaVersion": "2.0.0",
  "updatedAt": "2019-06-22T02:17:37.360Z"
}